:020000040000FA
:020000000C28CA
:040002000034003492
:08000800A0000308A10021087B
:100010008300A00E200E09008312031383166030A4
:100020008F0083128B0185010730990083168501AB
:1000300085169601831285018514053094200530BC
:100040009C200530A4200530AC200530B4200530BC
:10005000BC200530C4200530CC200530D52005302B
:10006000DE200530E6200530EE200530F620053094
:10007000FE200530062105300E2105301621053001
:100080001E210530262105302E2105303621053070
:100090003E214E214E214E214E211C28850104294E
:1000A00085144E2185104E2185144E2185104E2138
:1000B00085144E2185104E214E214E214E214E2178
:1000C0004E214E214E214E214E214E214E214E21B8
:1000D00085104E215028A30B6E2808002408A80084
:1000E0000515772005117720A80B70286B282508A7
:1000F000A900A90AA90B7F282608A700812891201A
:100100007A282708AB000310AB0C0310AB0C0330AC
:10011000AB0203190800031C08000000AB0B8D287C
:1001200008003F30AB008D28A3000D30A4000E3036
:10013000A500EE30A6006B28A3000F30A4000D3000
:10014000A5004D30A6006B28A3001030A4000B3092
:10015000A500DA30A6006B28A3001130A4000B30F4
:10016000A5002F30A6006B28A3001430A40009308E
:10017000A500F730A6006B28A3001630A4000830B5
:10018000A500E130A6006B28A3001930A4000730B9
:10019000A500E930A6006B28A3001A30A4000730A0
:1001A000A5007730A6006B200800A3001D30A40036
:1001B0000630A5007530A6006B200800A300213092
:1001C000A4000530A500ED30A6006B28A300233065
:1001D000A4000530A5009830A6006B28A3002730A6
:1001E000A4000430A500FC30A6006B28A3002C302E
:1001F000A4000430A5007030A6006B28A3003130A5
:10020000A4000330A500F430A6006B28A30034300E
:10021000A4000330A500BC30A6006B28A3003B302F
:10022000A4000330A5005330A6006B28A300423081
:10023000A4000230A500F630A6006B28A3004630CB
:10024000A4000230A500CC30A6006B28A3004E30DD
:10025000A4000230A5007E30A6006B28A300583011
:10026000A4000230A5003830A6006B28A30063303C
:10027000A4000130A500FA30A6006B28A300693065
:10028000A4000130A500DE30A6006B28851A4C2999
:100290005821851A4C294D2900340134FA30A20026
:1002A000FA30A5000000A50B5229A20B5029080026
:1002B0006430A200FA30A50000000000A50B5C2904
:1002C000A20B5A2908003230A200FA30A500000023
:1002D0000000A50B6729A20B652908003C30A5008A
:0C02E000000000000000A50B70290800C1
:02400E00C43CB0
:084200000000010002000300B0
:00000001FF
