:020000040000FA
:020000000C28CA
:040002000034003492
:08000800A0000308A10021087B
:100010008300A00E200E09008312031383166030A4
:100020008F0083128B0185010730990083168501AB
:10003000851696018312850185140530B0200530A0
:10004000B9200530C2200530CA200530D220053045
:10005000DA200530E32005303321332133213321E9
:100060001C2885010429851433218510332185142A
:100070003321851033218514332185103321332119
:1000800033213321332133213321332133213321D0
:10009000332133213321851033213328A30B5128F9
:1000A00008002408A80005155A2005115A20A80B9D
:1000B00053284E282508A900A90B61282608A70067
:1000C0006528FF30A70065205C282708AB000310D7
:1000D000AB0C0310AB0C0330AB0203190800031C7C
:1000E00008000000AB0B712808003F30AB007128FE
:1000F000A3000D30A4000E30A500FC30A6004E2851
:10010000A3000F30A4000D30A5005A30A6004E28E1
:10011000A3001030A4000B30A500E530A6004E2847
:10012000A3001130A4000B30A5003A30A6004E28E1
:10013000A3001430A4000A30A5000130A6004E2808
:10014000A3001630A4000830A500E930A6004E2810
:10015000A3001930A4000730A500F030A6004E28F7
:10016000A3001A30A4000730A5007E30A6004E2060
:100170000800A3001C30A4000630A500AD30A60086
:100180004E200800A3002130A4000530A500F23065
:10019000A6004E28A3002330A4000530A5009D3002
:1001A000A6004E28A3002730A4000530A50001308A
:1001B000A6004E28A3002C30A4000430A500743003
:1001C000A6004E200800A3003130A4000330A50093
:1001D000F730A6004E28A3003430A4000330A50059
:1001E000BF30A6004E28A3003B30A4000330A5007A
:1001F0005630A6004E28A3004230A4000230A500CD
:10020000F830A6004E28A3004630A4000230A50016
:10021000CE30A6004E28A3004E30A4000230A50028
:100220008030A6004E28A3005830A4000230A5005C
:100230003A30A6004E28A3006330A4000130A50088
:10024000FB30A6004E28A3006930A4000130A500B1
:10025000DF30A6004E28851A31293D21851A312923
:10026000322900340134FA30A200FA30A50000002F
:10027000A50B3729A20B352908006430A200FA30FB
:10028000A50000000000A50B4129A20B3F29080092
:100290003230A200FA30A50000000000A50B4C2966
:1002A000A20B4A2908003C30A50000000000000015
:0602B000A50B5529080012
:02400E00C43CB0
:084200000000010002000300B0
:00000001FF
