:020000040000FA
:020000000C28CA
:040002000034003492
:08000800A0000308A10021087B
:100010008300A00E200E09008312031383166030A4
:100020008F0083128B0185010730990083168501AB
:1000300085169601873081009F0183128501851402
:1000400005160514851403302821033030210E30A5
:10005000382103303021053028217A217A210330DC
:100060002821033030210330382103303021033080
:100070002821113030217A217A217A212228053055
:10008000B6200530BE200530C6200530CE20053014
:10009000D6200530DE200530E6200530EE20053084
:1000A000F7200530002105300821053010210530EA
:1000B0001821053020210530282105303021053058
:1000C00038210530402105304821053050210530C8
:1000D0005821053060217021702170217021222863
:1000E00085010429851470218510702185147021E3
:1000F0008510702185147021851070217021702168
:100100007021702170217021702170217021702167
:1001100070217021851070217228A30B902808008F
:100120002408A8000515992005119920A80B9228EC
:100130008D282508A900A90AA90BA1282608A7002F
:10014000A328B3209C282708AB000310AB0C031096
:10015000AB0C0330AB0203190800031C08000000BD
:10016000AB0BAF2808003F30AB00AF28A3000D3029
:10017000A4000E30A500EE30A6008D28A3000F309D
:10018000A4000D30A5004D30A6008D28A30010302E
:10019000A4000B30A500DA30A6008D28A300113092
:1001A000A4000B30A5002F30A6008D28A30014302A
:1001B000A4000930A500F730A6008D28A300163052
:1001C000A4000830A500E130A6008D28A300193056
:1001D000A4000730A500E930A6008D28A3001A303E
:1001E000A4000730A5007730A6008D200800A300EA
:1001F0001D30A4000630A5007530A6008D20080033
:10020000A3002130A4000530A500ED30A6008D2804
:10021000A3002330A4000530A5009830A6008D2847
:10022000A3002730A4000430A500FC30A6008D28D0
:10023000A3002C30A4000430A5007030A6008D2847
:10024000A3003130A4000330A500F430A6008D28AF
:10025000A3003430A4000330A500BC30A6008D28D4
:10026000A3003B30A4000330A5005330A6008D2826
:10027000A3004230A4000230A500F630A6008D286D
:10028000A3004630A4000230A500CC30A6008D2883
:10029000A3004E30A4000230A5007E30A6008D28B9
:1002A000A3005830A4000230A5003830A6008D28E5
:1002B000A3006330A4000130A500FA30A6008D2809
:1002C000A3006930A4000130A500DE30A6008D280F
:1002D000851A6E297A21851A6E296F290034013416
:1002E000FA30A200FA30A5000000A50B7429A20B79
:1002F000722908006430A200FA30A5000000000056
:10030000A50B7E29A20B7C2908003230A200FA300E
:10031000A50000000000A50B8929A20B8729080071
:100320003C30A500000000000000A50B9229080049
:02400E00C438B4
:084200000000010002000300B0
:00000001FF
