:020000040000FA
:020000000C28CA
:040002000034003492
:08000800A0000308A10021087B
:100010008300A00E200E09008312031383166030A4
:100020008F0083128B0185010730990083168501AB
:100030008516960183128501851403302221033031
:100040002A210E30322103302A2105302221742149
:1000500074210330222103302A210330322103305E
:100060002A210330222111302A2174217421742184
:100070001C280530B0200530B8200530C0200530E0
:10008000C8200530D0200530D8200530E0200530CC
:10009000E8200530F1200530FA2005300221053036
:1000A0000A210530122105301A21053022210530A0
:1000B0002A210530322105303A2105304221053010
:1000C0004A210530522105305A216A216A216A21CC
:1000D0006A211C288501042985146A2185106A215A
:1000E00085146A2185106A2185146A2185106A2188
:1000F0006A216A216A216A216A216A216A216A21A8
:100100006A216A216A216A2185106A216C28A30B61
:100110008A2808002408A8000515932005119320BB
:10012000A80B8C2887282508A900A90AA90B9B28B9
:100130002608A7009D28AD2096282708AB000310AD
:10014000AB0C0310AB0C0330AB0203190800031C0B
:1001500008000000AB0BA92808003F30AB00A9281D
:10016000A3000D30A4000E30A500EE30A6008728B5
:10017000A3000F30A4000D30A5004D30A600872845
:10018000A3001030A4000B30A500DA30A6008728A9
:10019000A3001130A4000B30A5002F30A600872843
:1001A000A3001430A4000930A500F730A60087286A
:1001B000A3001630A4000830A500E130A60087286F
:1001C000A3001930A4000730A500E930A600872855
:1001D000A3001A30A4000730A5007730A6008720BE
:1001E0000800A3001D30A4000630A5007530A6004D
:1001F00087200800A3002130A4000530A500ED30C1
:10020000A6008728A3002330A4000530A50098305D
:10021000A6008728A3002730A4000430A500FC30E6
:10022000A6008728A3002C30A4000430A50070305D
:10023000A6008728A3003130A4000330A500F430C5
:10024000A6008728A3003430A4000330A500BC30EA
:10025000A6008728A3003B30A4000330A50053303C
:10026000A6008728A3004230A4000230A500F63083
:10027000A6008728A3004630A4000230A500CC3099
:10028000A6008728A3004E30A4000230A5007E30CF
:10029000A6008728A3005830A4000230A5003830FB
:1002A000A6008728A3006330A4000130A500FA301F
:1002B000A6008728A3006930A4000130A500DE3025
:1002C000A6008728851A68297421851A6829692952
:1002D00000340134FA30A200FA30A5000000A50B6A
:1002E0006E29A20B6C2908006430A200FA30A50028
:1002F00000000000A50B7829A20B762908003230F7
:10030000A200FA30A50000000000A50B8329A20B73
:10031000812908003C30A500000000000000A50B6A
:040320008C2908001C
:02400E00C43CB0
:084200000000010002000300B0
:00000001FF
